:100000000C9434000C9465000C9465000C9465000D
:100010000C9465000C9465000C9465000C946500CC
:100020000C9465000C9465000C9465000C946500BC
:100030000C9465000C9465000C9465000C946500AC
:100040000C9465000C9465000C9465000C9465009C
:100050000C9465000C9465000C9465000C9465008C
:100060000C9465000C94650011241FBECFEFD8E0FE
:10007000DEBFCDBF0E9440000C945A00F894FFCF21
:1000800088E090E09093C5008093C4001092C00077
:100090008093C10086E28093C2008AE58093C60007
:1000A0002FEF81EE94E0215080409040E1F700C0B6
:0400B0000000F3CF8A
:1000B400EC010E946A000E946900CE010E946B005C
:0600C400CE010E9467005E
:0400CA000C94000092
:0400CE000E943E004E
:0200D20008958F
:0200D40008958D
:0200D60008958B
:00000001FF
