:100000000C9437000C9481030C9481030C948103AD
:100010000C9481030C9481030C9481030C94810350
:100020000C9481030C9481030C9481030C94810340
:100030000C9481030C9481030C9481030C94810330
:100040000C9481030C9481030C9481030C94810320
:100050000C9481030C94BC010C9481030C948103D7
:100060000C9481030C94810301000105800011248C
:100070001FBECFEFD8E0DEBFCDBFE8E6F0E040E046
:1000800017C0B591A59135912591059107FD0CC03B
:1000900095918591EF01F92FE82F05900D92A21708
:1000A000B307D9F7FE0104C01D92A217B307E1F709
:1000B000ED36F40731F70E9436020C943A03F894B7
:0200C000FFCF70
:1000C20020430D0A002D2D2D204D6F6E69746F7225
:1000D2002064652054656D7065726174757261206B
:0C00E2002834487A29202D2D2D0D0A000D
:1000EE00CF92DF92EF92FF920F931F93CF93DF93F6
:1000FE006B017C0120E030E0A9010E94750388238A
:10010E001CF4C12CD12C7601C701B6010E945303F9
:10011E00EB01072E000C880B990B0E94FB019B0133
:10012E00AC01C701B6010E944C0320E030E040E272
:10013E0051E40E947A030E9453037B01772324F437
:10014E00EE24FF24E61AF70ACE0164E670E00E9460
:10015E00F602CB012AE030E0B9010E94F602482FE8
:10016E00CE01B9010E94F602182FCB01B9010E94EF
:10017E00F602082FC436D10524F080E3840F0E94C6
:10018E0045032A9724F080E3800F0E94450380E305
:10019E00810F0E9445038EE20E944503C7016AE06B
:1001AE0070E00E94F602805D0E94450362EC70E0F2
:1001BE0080E00E94E002DF91CF911F910F91FF909E
:0801CE00EF90DF90CF9008953F
:1001D6000FC00E945A0338F00E94610320F0952355
:1001E60011F00C946F030C947E0311240C94690394
:1001F6000E94BE0270F3959FC1F3950F50E0551F04
:10020600629FF001729FBB27F00DB11D639FAA2765
:10021600F00DB11DAA1F649F6627B00DA11D661FB4
:10022600829F2227B00DA11D621F739FB00DA11DD5
:10023600621F839FA00D611D221F749F3327A00D8F
:10024600611D231F849F600D211D822F762F6A2F2B
:1002560011249F5750409AF0F1F088234AF0EE0F90
:10026600FF1FBB1F661F771F881F91505040A9F7BD
:100276009E3F510580F00C946F030C9469035F3F19
:10028600E4F3983ED4F3869577956795B795F795F9
:10029600E7959F5FC1F7FE2B880F911D9695879571
:0402A60097F9089527
:1002AA0011C00E945A0338F00E94610320F039F409
:1002BA009F3F19F426F40C947E030EF4E095E7FBB5
:1002CA000C946F03E92F0E94BE0258F3BA17620713
:1002DA0073078407950720F079F4A6F50C94680350
:1002EA000EF4E0950B2EBA2FA02D0B01B901900147
:1002FA000C01CA01A0011124FF27591B99F0593F8B
:10030A0050F4503E68F11A16F040A22F232F342FD2
:10031A004427585FF3CF469537952795A795F04020
:10032A005395C9F77EF41F16BA0B620B730B840B35
:10033A00BAF09150A1F0FF0FBB1F661F771F881FED
:10034A00C2F70EC0BA0F621F731F841F48F4879545
:10035A0077956795B795F7959E3F08F0B0CF939537
:0E036A00880F08F09927EE0F97958795089554
:100378001F920F920FB60F9211242F933F934F9312
:100388005F936F937F938F939F93AF93BF93EF93F5
:10039800FF93609178007091790080E090E00E946E
:1003A800F90120E030E04AEF5EE30E947A036093AF
:1003B800000170930101809302019093030181E091
:1003C8008093040184E086BBFF91EF91BF91AF91C8
:1003D8009F918F917F916F915F914F913F912F9155
:0A03E8000F900FBE0F901F901895A4
:1003F200E89409C097FB3EF49095809570956195BD
:100402007F4F8F4F9F4F9923A9F0F92F96E9BB2772
:100412009395F695879577956795B795F111F8CFEE
:10042200FAF4BB0F11F460FF1BC06F5F7F4F8F4F59
:100432009F4F16C0882311F096E911C0772321F04F
:100442009EE8872F762F05C0662371F096E8862FE7
:1004520070E060E02AF09A95660F771F881FDAF73E
:0A046200880F9695879597F9089585
:10046C0088E690E00E942F0367EC70E080E00E9429
:10047C00E00280E480937C0085E080937B008FEA2F
:10048C0080937A00109280008CE08093810088E049
:10049C009DE3909389008093880090938B008093C8
:1004AC008A0084E086BB7894809104018823E1F370
:1004BC001092040160910001709101018091020180
:0A04CC00909103010E947700EFCF2A
:1004D6000E94C60288F09F5798F0B92F9927B75106
:1004E600B0F0E1F0660F771F881F991F1AF0BA95D2
:1004F600C9F714C0B13091F00E946803B1E00895C5
:100506000C946803672F782F8827B85F39F0B93FB6
:10051600CCF3869577956795B395D9F73EF4909584
:0E0526008095709561957F4F8F4F9F4F089580
:10053400990F0008550FAA0BE0E8FEEF16161706F0
:10054400E807F907C0F012161306E407F50798F058
:10055400621B730B840B950B39F40A2661F0232B71
:10056400242B252B21F408950A2609F4A140A695ED
:080574008FEF811D811D089528
:10057C0057FD9058440F551F59F05F3F71F0479548
:10058C00880F97FB991F61F09F3F79F0879508952D
:10059C00121613061406551FF2CF4695F1DF08C04C
:1005AC00161617061806991FF1CF86957105610569
:0405BC000894089502
:1005C000CF92DF92EF926B01E82E06C09FEFC91A1F
:1005D000D90AE90A0E944503F6018491E7FC80816B
:0C05E0008111F4CFEF90DF90CF900895D0
:1005EC0097FB072E16F4009407D077FD09D00E94D4
:1005FC000A0307FC05D03EF4909581959F4F089512
:08060C00709561957F4F089580
:10061400AA1BBB1B51E107C0AA1FBB1FA617B70724
:1006240010F0A61BB70B881F991F5A95A9F7809540
:080634009095BC01CD01089571
:10063C00092E0394000C11F4882352F0BB0F40F4E4
:10064C00BF2B11F460FF04C06F5F7F4F8F4F9F4F24
:02065C000895FF
:10065E009093C5008093C40088E08093C10086E02B
:06066E008093C200089514
:10067400EC010E9486030E948503CE010E94870339
:06068400CE010E94830379
:0E068A009091C00095FFFCCF8093C6000895AC
:0E0698005058BB27AA270E9455010C941E0340
:0E06A6000E946B026894B1110C9469030895D0
:0E06B40000240A941616170618060906089563
:0E06C20000240A941216130614060506089565
:0E06D000E894BB2766277727CB0197F908959A
:0C06DE0097F99F6780E870E060E00895E5
:0A06EA000E949A0208F481E00895CE
:0806F4000E94EB000C941E03B0
:0606FC009FEF80EC089561
:040702000C94000053
:040706000E945F00EE
:02070A00089550
:02070C0008954E
:02070E0008954C
:00000001FF
