:100000000C9434000C9469000C9469000C94690001
:100010000C9469000C9469000C9469000C946900BC
:100020000C9469000C9469000C9469000C946900AC
:100030000C9469000C9469000C9469000C9469009C
:100040000C9469000C9469000C9469000C9469008C
:100050000C9469000C9469000C9469000C9469007C
:100060000C9469000C94690011241FBECFEFD8E0F6
:10007000DEBFCDBFE8E6F0E040E017C0B591A59146
:1000800035912591059107FD0CC095918591EF0162
:10009000F92FE82F05900D92A217B307D9F7FE01AB
:1000A00004C01D92A217B307E1F7E836F40731F751
:0C00B0000E946D000C945E00F894FFCFDD
:1000BC00EC010E946F000E946E00CE010E94700045
:0600CC00CE010E946B0052
:0400D2000C9400008A
:0400D6000E945C0028
:0200DA00FFCF56
:0200DC00089585
:0200DE00089583
:0200E000089581
:00000001FF
